:100000000C945D000C9485000C9485000C94850084
:100010000C9485000C9485000C9485000C9485004C
:100020000C9485000C9485000C9485000C94E304DA
:100030000C9485000C9485000C9485000C9485002C
:100040000C9499040C9485000C9485000C94850004
:100050000C9485000C9485000C9485000C9485000C
:100060000C9485000C94850000000008000201003B
:100070000003040700000000000000000000000072
:10008000250028002B0000000000240027002A0083
:10009000040404040404040402020202020203032E
:1000A0000303030301020408102040800102040836
:1000B0001020010204081020BE0811241FBECFEF3B
:1000C000D8E0DEBFCDBF11E0A0E0B1E0E8EFF2E1A3
:1000D00002C005900D92A030B107D9F721E0A0E051
:1000E000B1E001C01D92AF3FB207E1F710E0CDE5EE
:1000F000D0E004C02197FE010E947409CC35D107DD
:10010000C9F70E94BA050C947A090C94000090E09B
:10011000FC01EC55FF4F249180579F4FFC018491C7
:10012000882399F090E0880F991FFC01EA57FF4F50
:10013000A591B491FC01E458FF4F859194918FB73C
:10014000F894EC91E22BEC938FBF089590E0FC01C2
:10015000E859FF4F2491FC01EC55FF4F3491FC010D
:10016000E057FF4FE491EE23C9F0222339F023300A
:1001700001F1A8F4213019F1223029F1F0E0EE0F5D
:10018000FF1FE458FF4FA591B4918FB7F894EC91FD
:10019000611126C030953E233C938FBF08952730D0
:1001A000A9F02830C9F0243049F7809180008F7D74
:1001B00003C0809180008F7780938000DFCF84B56B
:1001C0008F7784BDDBCF84B58F7DFBCF8091B0006E
:1001D0008F778093B000D2CF8091B0008F7DF9CF20
:1001E0003E2BDACF8E3008F08E508770806480937B
:1001F0007C0080917A00806480937A0080917A00FC
:1002000086FDFCCF8091780090917900089582302E
:10021000910538F0880F991F880F991F059701974E
:10022000F1F708953FB7F894809187019091880184
:10023000A0918901B0918A0126B5A89B05C02F3FE6
:1002400019F00196A11DB11D3FBFBA2FA92F982FFC
:100250008827BC01CD01620F711D811D911D42E0F7
:10026000660F771F881F991F4A95D1F708958F92BF
:100270009F92AF92BF92CF92DF92EF92FF926B016B
:100280007C010E9412014B015C01C114D104E10404
:10029000F104B9F00E941201681979098A099B09D1
:1002A000683E73408105910580F321E0C21AD108B0
:1002B000E108F10888EE880E83E0981EA11CB11CAD
:1002C000E4CFFF90EF90DF90CF90BF90AF909F90E2
:1002D0008F9008958F929F92AF92BF92CF92DF92AC
:1002E000EF92FF92FC01828158E5C52E52E0D52E97
:1002F000C81AD10887FDD394CC0CDD1CCC0CDD1CB6
:100300000D2C000CEE08FF08818178E8872E912CD7
:10031000881A910887FD9394880C991C880C991C65
:10032000092C000CAA08BB0880818F3FD1F190E016
:10033000FC01EE0FFF1FE80FF91FEE5FFE4F8181FA
:10034000928133E0880F991F3A95E1F7B0E0A0E081
:1003500044E0B595A795979587954A95D1F702966C
:100360009C012F5F3F4F032E000C440B550B2819A7
:1003700039094A095B09A4EBB0E00E94FC08A70117
:100380009601281939094A095B090E94DD08C9014B
:10039000FF90EF90DF90CF90BF90AF909F908F90A5
:1003A000089590E080E0DCCFCF92DF92EF92FF9251
:1003B000CF93DF93EC01603282E07807CCF5653BA8
:1003C000710514F064EB70E0898128E830E0281BA7
:1003D000310987FD3395220F331F220F331F690127
:1003E000330FEE08FF088A8128E532E0281B310927
:1003F00087FD3395220F331F220F331F032E000C6E
:10040000440B550B2C193D094E095F09DB0177FFA1
:1004100002C0B0E0A0E00E94070924EB30E040E019
:1004200050E00E94DD08C20ED31EE41EF51EB60188
:10043000E881EC3070F5298188E890E0821B910911
:1004400027FD9395880F991F880F991F68177907C3
:100450007CF02A8188E592E0821B910927FD939523
:10046000880F991F880F991F681779070CF4CB0123
:100470000297880F991F4FB7F8942E2F30E0F9019B
:10048000EE0FFF1FE20FF31FEE5FFE4F928381839B
:100490004FBFDF91CF91FF90EF90DF90CF90089505
:1004A000CF93DF93EC0186E991E00E946A0190937B
:1004B0008E0180938D0189E991E00E946A0120916B
:1004C0008D0130918E012150310930938E0120939E
:1004D0008D0101969093900180938F01121613065F
:1004E00024F010928E0110928D01843B910534F01E
:1004F00084EB90E09093900180938F0160918D0147
:1005000070918E0186E991E00E94D40160918F0183
:100510007091900189E991E00E94D401BE01DD0F44
:10052000880B990BDF91CF910C943701CF93DF9318
:10053000EC0186E991E00E946A0190938E0180931C
:100540008D0189E991E00E946A0120918D0130912D
:100550008E012F5F3F4F30938E0120938D010197C5
:100560009093900180938F01243B310534F024EB6C
:1005700030E030938E0120938D011816190624F077
:100580001092900110928F0160918D0170918E01F7
:1005900086E991E00E94D40160918F0170919001F1
:1005A00089E991E00E94D401BE01DD0F880B990B0F
:1005B000DF91CF910C943701CF93DF93EC0183E966
:1005C00091E00E946A010196843B9105A4F4909306
:1005D0008C0180938B0160918B0170918C0183E978
:1005E00091E00E94D401BE01DD0F880B990BDF91D1
:1005F000CF910C94370184EB90E0E9CFCF93DF9358
:10060000EC0183E991E00E946A010197181619062E
:10061000A4F490938C0180938B0160918B01709175
:100620008C0183E991E00E94D401BE01DD0F880BAB
:10063000990BDF91CF910C94370110928C0110929D
:100640008B01EBCFCF93DF93EC018CE991E00E941B
:100650006A010196843B9105A4F4909392018093E2
:10066000910160919101709192018CE991E00E9459
:10067000D401BE01DD0F880B990BDF91CF910C9453
:10068000370184EB90E0E9CFCF93DF93EC018CE965
:1006900091E00E946A01019718161906A4F490933C
:1006A00092018093910160919101709192018CE986
:1006B00091E00E94D401BE01DD0F880B990BDF9100
:1006C000CF910C9437011092920110929101EBCFCF
:1006D0001F93CF93DF93EC01162F88818C3008F0A5
:1006E0004DC0862F0E9487008881282F30E0F901B5
:1006F000EE0FFF1FE20FF31FEE5FFE4F1F736081CF
:10070000607C612B608319821A822CE0622F0E9428
:100710004009829FB001112430E020E0AB01420F7C
:10072000531FFA01EE0FFF1FE40FF51FEE5FFE4FA0
:10073000908196FD16C02F5F3F4F2C30310571F729
:1007400081110FC01092800082E08093810010928E
:10075000850010928400B19A80916F00826080932E
:100760006F00E8818E2F90E0FC01EE0FFF1FE80F75
:10077000F91FEE5FFE4F8081806480838881DF9166
:10078000CF911F910895EF92FF920F931F93CF93F4
:10079000DF93EC018C01085F1F4F7C0180E3E80EC2
:1007A000F11C89810E94F200F801819391938F01DD
:1007B000EE15FF05B1F7FE0172969E012A5D3F4FCF
:1007C00090E080E041915191840F951FE217F3076B
:1007D000C9F76AE070E00E944C09CB017E836D830B
:1007E000DF91CF911F910F91FF90EF900895EF92BD
:1007F000FF920F931F93CF93DF93EC018C01085F5F
:100800001F4F7C0180E3E80EF11C88810E94F200FA
:10081000F801819391938F01EE15FF05B1F7FE0169
:1008200072969E012A5D3F4F90E080E04191519188
:10083000840F951FE217F307C9F76AE070E00E9482
:100840004C09CB017C836B83DF91CF911F910F917A
:10085000FF90EF9008950F931F93CF93DF938C0138
:10086000EB0180917A0190917B01843A9140BCF434
:1008700061E089E00E94A600C8010E94070160E0D3
:1008800089E00E94A600CE010E9407018FEC91E052
:100890000E94C30390937B0180937A01E2CF809101
:1008A0007A0190917B0189359240BCF061E089E04A
:1008B0000E94A600C8010E94070160E089E00E9432
:1008C000A600CE010E9407018FEC91E00E94C303B5
:1008D00090937B0180937A01E2CFDF91CF911F91BA
:1008E0000F910895DC012D913C9140E052E0421BB4
:1008F000530B1416150614F0A9015250DB01ED91AB
:10090000FC9120E032E02E1B3F0B1216130614F070
:100910009F0132502417350734F480E092E0FB0148
:1009200091838083089520E032E0DC012D933C9395
:1009300008951F920F920FB60F9211242F933F9399
:100940008F939F93AF93BF93809183019091840184
:10095000A0918501B09186013091820123E0230F9F
:100960002D3758F50196A11DB11D2093820180936A
:10097000830190938401A0938501B09386018091B7
:10098000870190918801A0918901B0918A01019617
:10099000A11DB11D8093870190938801A0938901C7
:1009A000B0938A01BF91AF919F918F913F912F9109
:1009B0000F900FBE0F901F90189526E8230F0296F8
:1009C000A11DB11DD2CF1F920F920FB60F9211240D
:1009D0002F933F934F935F936F937F938F939F9347
:1009E000AF93BF93CF93DF93EF93FF938091000179
:1009F000C0910101D0E087FF24C0109285001092C1
:100A00008400809100018F5F80930001809100013C
:100A1000082E000C990B8C179D0724F4809100017F
:100A20008C30C4F1809184009091850004968034CC
:100A30009C4908F47AC080918400909185000496C6
:100A400076C080910001082E000C990B8C179D0731
:100A5000C4F6E09100018E2FEE0F990BFC01EE0F12
:100A6000FF1FE80FF91FEE5FFE4F808186FFC9CFA1
:100A7000E09100018E2FEE0F990BFC01EE0FFF1F8E
:100A8000E80FF91FEE5FFE4F808160E08F730E94D8
:100A9000A600B7CF2091840030918500E09100013D
:100AA0008E2FEE0F990BFC01EE0FFF1FE80FF91FC1
:100AB000EE5FFE4F81819281820F931F9093890098
:100AC00080938800E09100018E2FEE0F990BFC01BE
:100AD000EE0FFF1FE80FF91FEE5FFE4F808186FFCC
:100AE00011C0E09100018E2FEE0F990BFC01EE0F6B
:100AF000FF1FE80FF91FEE5FFE4F808161E08F73EB
:100B00000E94A600FF91EF91DF91CF91BF91AF912D
:100B10009F918F917F916F915F914F913F912F9115
:100B20000F900FBE0F901F90189580E49CE9909352
:100B30008900809388008FEF80930001E3CFFC0150
:100B4000909101019C3098F481E0890F809301011C
:100B50009083892F90E0FC01EE0FFF1FE80FF91F33
:100B6000EE5FFE4F88EB9BE09283818308958FEFC9
:100B700080830895CF93DF93CDB7DEB728970FB664
:100B8000F894DEBF0FBECDBF789484B5826084BD7B
:100B900084B5816084BD85B5826085BD85B5816081
:100BA00085BD80916E00816080936E0010928100FF
:100BB00080918100826080938100809181008160BA
:100BC000809381008091800081608093800080917B
:100BD000B10084608093B1008091B0008160809307
:100BE000B00080917A00846080937A0080917A00CE
:100BF000826080937A0080917A00816080937A008D
:100C000080917A00806880937A001092C10064E03D
:100C100070E083E991E00E94680365E070E086E996
:100C200091E00E94680366E070E089E991E00E942B
:100C3000680367E070E08CE991E00E94680383E953
:100C400091E00E946A0190938C0180938B0186E968
:100C500091E00E946A0190938E0180938D0189E951
:100C600091E00E946A019093900180938F018CE93A
:100C700091E00E946A0190939201809391018EE02D
:100C800080939F018FE08093A00180E18093CF014A
:100C900081E18093D00189E00E94870030E0232E1B
:100CA00030E0332E8FE991E00E94F70390938101A9
:100CB000809380018FE991E00E94C30390937F01AC
:100CC00080937E018FEC91E00E94F70390937D0169
:100CD00080937C018FEC91E00E94C30390937B0191
:100CE00080937A016EE771E080E891E00E947204DF
:100CF0006AE771E08CE791E00E94720480918001C4
:100D000090918101811522E0920741F0853691058D
:100D100008F076C08AE090E00E94960280917E0101
:100D200090917F018115A2E09A0741F085369105E7
:100D300008F0B8C090E080E00E94FE0280917C0143
:100D400090917D018115B2E09B0741F085369105B8
:100D500008F0FAC090E080E00E94440380917A019C
:100D600090917B01813293400CF440C18091260127
:100D700090912701FC0123E0EE0FFF1F2A95E1F778
:100D8000E85DFE4F20918B0130918C0131832083EF
:100D900020918D0130918E013383228320918F0128
:100DA00030919001358324832091910130919201FB
:100DB0003783268301969093270180932601909391
:100DC0007901809378010A9754F0109227011092CC
:100DD000260160E971E088E592E00E942B04809191
:100DE0007A0190917B01893592400CF4FFC08FEC21
:100DF00091E00E94C30390937B0180937A01EFCF2F
:100E00009C01255833402C37310528F48AE090E0C6
:100E10000E94500283CF9C012556310924363105AA
:100E200018F484E190E078CF9C01215233402436BD
:100E3000310518F484E190E0EBCF9C01295C310985
:100E40002436310518F489E190E066CF9C012D5BD2
:100E500032402436310518F489E190E0D9CF9C0165
:100E60002D5231402436310518F48EE190E054CFF4
:100E70009C01295532402436310518F48EE190E06A
:100E8000C7CF9C01215931402035310518F483E248
:100E900090E042CF8D519240CC9708F03FCF83E253
:100EA00090E0B6CF9C01255833402C37310528F40B
:100EB00090E080E00E94DC0241CF9C012556310980
:100EC0002436310518F485E090E036CF9C0121529C
:100ED00033402436310518F485E090E0EBCF9C01D7
:100EE000295C31092436310518F48AE090E024CFDA
:100EF0009C012D5B32402436310518F48AE090E0E5
:100F0000D9CF9C012D5231402436310518F48FE0A1
:100F100090E012CF9C01295532402436310518F457
:100F20008FE090E0C7CF9C01215931402035310539
:100F300018F484E190E000CF8D519240CC9708F0F6
:100F4000FDCE84E190E0B6CF9C01255833402C378C
:100F5000310528F490E080E00E942203FFCE9C013E
:100F6000255631092436310518F485E090E0F4CE99
:100F70009C01215233402436310518F485E090E07D
:100F8000EBCF9C01295C31092436310518F48AE045
:100F900090E0E2CE9C012D5B32402436310518F4FE
:100FA0008AE090E0D9CF9C012D52314024363105A2
:100FB00018F48FE090E0D0CE9C01295532402436C1
:100FC000310518F48FE090E0C7CF9C0121593140E2
:100FD0002035310518F484E190E0BECE8D51924069
:100FE000CC9708F0BBCE84E190E0B6CF80917A0137
:100FF00090917B018C3D91050CF0B9C06CE271E0E1
:1010000088EC90E00E942B0498E2692E91E0792E02
:10101000512C412C80917801909179014816590604
:101020000CF07CC0FE013196C3010896D3012D91CE
:101030003D913D01219331938A179B07B9F783E9CD
:1010400091E00E946A016C0186E991E00E946A01C8
:101050007C0189E991E00E946A015C018CE991E0E0
:101060000E946A018C0184EB882E912C89819A81DF
:10107000C816D9060CF043C0BFEFCB1ADB0AB60185
:1010800083E991E00E94D4018B819C81E816F906E6
:10109000D4F58FEFE81AF80AB70186E991E00E94CB
:1010A000D4018D819E81A816B9068CF5BFEFAB1ACD
:1010B000BB0AB50189E991E00E94D4018F8198852E
:1010C0000817190744F50F5F1F4FB8018CE991E02D
:1010D0000E94D4016FE070E080E090E00E94370150
:1010E00081E0881A910809F0C1CF6CE271E080E0DC
:1010F00090E00E943701AFEF4A1A5A0A8BCF21E0E5
:10110000C21AD108BCCFA1E0EA1AF108C5CF21E08C
:10111000A21AB108CECF01501109D7CF10922701E2
:101120001092260180917A0190917B01843A91403E
:101130004CF48FEC91E00E94C30390937B01809369
:101140007A01F0CF00ED17E061E089E00E94A6008F
:101150008BE193E00197F1F760E089E00E94A6003F
:101160008BEA94E00197F1F70150110969F7211416
:10117000310409F497CD0E94000094CD83E991E0F9
:101180000E949F0586E991E00E949F0589E991E010
:101190000E949F058CE991E00E949F0588E2E7EAA2
:1011A000F1E0DF01982F1D929A95E9F7E7EDF1E064
:1011B000DF011D928A95E9F70895052E97FB1EF42D
:1011C00000940E94F40857FD07D00E940F0907FC05
:1011D00003D04EF40C94F408509540953095219529
:1011E0003F4F4F4F5F4F0895909580957095619553
:1011F0007F4F8F4F9F4F08950E943109A59F900DFB
:10120000B49F900DA49F800D911D11240895B7FFE8
:101210000C94FC080E94FC08821B930B0895A1E229
:101220001A2EAA1BBB1BFD010DC0AA1FBB1FEE1F60
:10123000FF1FA217B307E407F50720F0A21BB30BAB
:10124000E40BF50B661F771F881F991F1A9469F727
:1012500060957095809590959B01AC01BD01CF0183
:101260000895A29FB001B39FC001A39F700D811D7F
:101270001124911DB29F700D811D1124911D08959F
:10128000991B79E004C0991F961708F0961B881FD8
:101290007A95C9F78095089597FB072E16F4009468
:1012A00007D077FD09D00E94600907FC05D03EF405
:1012B000909581959F4F0895709561957F4F089502
:1012C000AA1BBB1B51E107C0AA1FBB1FA617B7076C
:1012D00010F0A61BB70B881F991F5A95A9F7809588
:1012E0009095BC01CD010895EE0FFF1F0590F4917C
:0812F000E02D0994F894FFCFF2
:00000001FF
