:100000000C945D000C9485000C9485000C94850084
:100010000C9485000C9485000C9485000C9485004C
:100020000C9485000C9485000C9485000C9450026F
:100030000C9485000C9485000C9485000C9485002C
:100040000C9406020C9485000C9485000C94850099
:100050000C9485000C9485000C9485000C9485000C
:100060000C9485000C9485000000000024002700FB
:100070002A0000000000250028002B0004040404CE
:100080000404040402020202020203030303030342
:10009000010204081020408001020408102001021F
:1000A00004081020000000080002010000030407FB
:1000B0000000000000000000A50311241FBECFEFC8
:1000C000D8E0DEBFCDBF11E0A0E0B1E0E8E4F8E0A9
:1000D00002C005900D92A030B107D9F721E0A0E051
:1000E000B1E001C01D92AB33B207E1F710E0CDE5FE
:1000F000D0E004C02197FE010E941C04CC35D1073A
:10010000C9F70E9427030C9422040C9400008F92DC
:100110009F92AF92BF92FF920F931F93CF93DF9363
:10012000FC01F0808BE08F1508F44BC0828108E55C
:1001300012E0081B110987FD1395000F111F000F16
:10014000111F8181C8E8D0E0C81BD10987FDD39574
:10015000CC0FDD1FCC0FDD1F4E010D2E000CAA08A9
:10016000BB089801012E000C440B550B28193909C6
:100170004A095B09AAE5B0E00E94D40324EB30E011
:1001800040E050E00E94B503820E931EA41EB51EEF
:100190008C169D062CF0E801801691060CF4E40103
:1001A0002297CC0FDD1F2FB7F8948F2D90E0FC0124
:1001B000EE0FFF1FE80FF91FE95EFE4FD283C183E8
:1001C0002FBFDF91CF911F910F91FF90BF90AF9004
:1001D0009F908F90089590E0FC01EC55FF4F249183
:1001E000FC01E057FF4F3491FC01E458FF4FE491CC
:1001F000EE23C9F0222339F0233001F1A8F4213095
:1002000019F1223029F1F0E0EE0FFF1FEE58FF4FF9
:10021000A591B4918FB7F894EC91611126C03095F7
:100220003E233C938FBF08952730A9F02830C9F0B2
:10023000243049F7809180008F7D03C08091800039
:100240008F7780938000DFCF84B58F7784BDDBCF3D
:1002500084B58F7DFBCF8091B0008F778093B00005
:10026000D2CF8091B0008F7DF9CF3E2BDACF3FB750
:10027000F8948091130190911401A0911501B0910F
:10028000160126B5A89B05C02F3F19F00196A11DA8
:10029000B11D3FBFBA2FA92F982F8827BC01CD01D0
:1002A000620F711D811D911D42E0660F771F881F2F
:1002B000991F4A95D1F708958F929F92AF92BF925E
:1002C000CF92DF92EF92FF924B015C010E943701C7
:1002D0006B017C010E9437016C197D098E099F0911
:1002E000683E734081059105A8F321E0821A9108C8
:1002F000A108B10888EEC80E83E0D81EE11CF11CED
:1003000081149104A104B10429F7FF90EF90DF90CC
:10031000CF90BF90AF909F908F900895CF93DF9331
:10032000DC018C918C3008F06DC0CB01FB01E057F3
:10033000FF4F249184589F4FFC018491882399F0AA
:1003400090E0880F991FFC01E859FF4FC591D491A7
:10035000FC01EE58FF4F859194918FB7F894E88196
:10036000E22BE8838FBF8C91282F30E0F901EE0F4C
:10037000FF1FE20FF31FE95EFE4F962F9F73608110
:10038000607C692B608311961C92119712961C92C7
:1003900012972CE0622F0E941004829FB00111245A
:1003A00030E020E0AB01420F531FFA01EE0FFF1FB8
:1003B000E40FF51FE95EFE4F908196FD16C02F5F9A
:1003C0003F4F2C30310571F781110FC01092800022
:1003D00082E0809381001092850010928400B19A8F
:1003E00080916F00826080936F00EC918E2F90E07F
:1003F000FC01EE0FFF1FE80FF91FE95EFE4F808141
:10040000806480838C91DF91CF9108951F920F9229
:100410000FB60F9211242F933F938F939F93AF9317
:10042000BF9380910F0190911001A0911101B091A3
:10043000120130910E0123E0230F2D3758F501965C
:10044000A11DB11D20930E0180930F019093100107
:10045000A0931101B09312018091130190911401A6
:10046000A0911501B09116010196A11DB11D8093B7
:10047000130190931401A0931501B0931601BF913D
:10048000AF919F918F913F912F910F900FBE0F9041
:100490001F90189526E8230F0296A11DB11DD2CFFB
:1004A0001F920F920FB60F9211242F933F934F93E9
:1004B0005F936F937F938F939F93AF93BF93CF93EC
:1004C000DF93EF93FF9380910001C0910101D0E091
:1004D00087FF24C010928500109284008091000153
:1004E0008F5F8093000180910001082E000C990B12
:1004F0008C179D0724F4809100018C30C4F1809109
:10050000840090918500049680349C4908F47AC058
:100510008091840090918500049676C080910001BE
:10052000082E000C990B8C179D07C4F6E091000172
:100530008E2FEE0F990BFC01EE0FFF1FE80FF91F36
:10054000E95EFE4F808186FFC9CFE09100018E2FCA
:10055000EE0F990BFC01EE0FFF1FE80FF91FE95E8C
:10056000FE4F808160E08F730E94EB00B7CF209137
:10057000840030918500E09100018E2FEE0F990BE1
:10058000FC01EE0FFF1FE80FF91FE95EFE4F8181AE
:100590009281820F931F9093890080938800E0914D
:1005A00000018E2FEE0F990BFC01EE0FFF1FE80FDD
:1005B000F91FE95EFE4F808186FF11C0E0910001C6
:1005C0008E2FEE0F990BFC01EE0FFF1FE80FF91FA6
:1005D000E95EFE4F808161E08F730E94EB00FF9126
:1005E000EF91DF91CF91BF91AF919F918F917F91CB
:1005F0006F915F914F913F912F910F900FBE0F9090
:100600001F90189580E49CE990938900809388005E
:100610008FEF80930001E3CFFC01909101019C30AA
:1006200098F481E0890F809301019083892F90E0F5
:10063000FC01EE0FFF1FE80FF91FE95EFE4F88EB8C
:100640009BE09283818308958FEF8083089578944F
:1006500084B5826084BD84B5816084BD85B58260C7
:1006600085BD85B5816085BD80916E008160809378
:100670006E001092810080918100826080938100E1
:1006800080918100816080938100809180008160F1
:10069000809380008091B10084608093B10080914C
:1006A000B00081608093B00080917A008460809374
:1006B0007A0080917A00826080937A0080917A003B
:1006C000816080937A0080917A00806880937A00BC
:1006D0001092C10064E070E08BE091E00E948E0116
:1006E00065E070E088E091E00E948E0166E070E0D5
:1006F00085E091E00E948E0167E070E082E091E089
:100700000E948E0164E670E080E090E00E945C014F
:10071000C0E0D0E08BE091E00E94870088E091E0AB
:100720000E94870085E091E00E94870082E091E0CE
:100730000E94870068EE73E080E090E00E945C0118
:10074000209741F30E940000E5CF8BE091E00E94EA
:100750000C0388E091E00E940C0385E091E00E9488
:100760000C0382E091E00C940C03052E97FB1EF421
:1007700000940E94CC0357FD07D00E94DF0307FCC2
:1007800003D04EF40C94CC035095409530952195B0
:100790003F4F4F4F5F4F08959095809570956195AD
:1007A0007F4F8F4F9F4F08950E940104A59F900D8A
:1007B000B49F900DA49F800D911D11240895A1E276
:1007C0001A2EAA1BBB1BFD010DC0AA1FBB1FEE1FCB
:1007D000FF1FA217B307E407F50720F0A21BB30B16
:1007E000E40BF50B661F771F881F991F1A9469F792
:1007F00060957095809590959B01AC01BD01CF01EE
:100800000895A29FB001B39FC001A39F700D811DE9
:100810001124911DB29F700D811D1124911D089509
:10082000991B79E004C0991F961708F0961B881F42
:100830007A95C9F780950895EE0FFF1F0590F49102
:08084000E02D0994F894FFCFAC
:00000001FF
